{
  "contractName": "Bark",
  "abi": [
    {
      "constant": false,
      "inputs": [],
      "name": "renounceOwnership",
      "outputs": [],
      "payable": false,
      "stateMutability": "nonpayable",
      "type": "function"
    },
    {
      "constant": true,
      "inputs": [],
      "name": "owner",
      "outputs": [
        {
          "name": "",
          "type": "address"
        }
      ],
      "payable": false,
      "stateMutability": "view",
      "type": "function"
    },
    {
      "constant": true,
      "inputs": [],
      "name": "isOwner",
      "outputs": [
        {
          "name": "",
          "type": "bool"
        }
      ],
      "payable": false,
      "stateMutability": "view",
      "type": "function"
    },
    {
      "constant": true,
      "inputs": [],
      "name": "numberOfPosts",
      "outputs": [
        {
          "name": "",
          "type": "uint256"
        }
      ],
      "payable": false,
      "stateMutability": "view",
      "type": "function"
    },
    {
      "constant": false,
      "inputs": [
        {
          "name": "newOwner",
          "type": "address"
        }
      ],
      "name": "transferOwnership",
      "outputs": [],
      "payable": false,
      "stateMutability": "nonpayable",
      "type": "function"
    },
    {
      "inputs": [
        {
          "name": "_adQuota",
          "type": "uint256"
        },
        {
          "name": "_influencerAddress",
          "type": "address"
        },
        {
          "name": "_owner",
          "type": "address"
        }
      ],
      "payable": true,
      "stateMutability": "payable",
      "type": "constructor"
    },
    {
      "anonymous": false,
      "inputs": [
        {
          "indexed": false,
          "name": "influencerAddress",
          "type": "address"
        }
      ],
      "name": "Transfer",
      "type": "event"
    },
    {
      "anonymous": false,
      "inputs": [
        {
          "indexed": false,
          "name": "nextStep",
          "type": "string"
        }
      ],
      "name": "LogConstructorInitiated",
      "type": "event"
    },
    {
      "anonymous": false,
      "inputs": [
        {
          "indexed": false,
          "name": "description",
          "type": "string"
        }
      ],
      "name": "LogNewProvableQuery",
      "type": "event"
    },
    {
      "anonymous": false,
      "inputs": [
        {
          "indexed": false,
          "name": "numberOfPosts",
          "type": "uint256"
        }
      ],
      "name": "LogAdConfirmations",
      "type": "event"
    },
    {
      "anonymous": false,
      "inputs": [
        {
          "indexed": true,
          "name": "previousOwner",
          "type": "address"
        },
        {
          "indexed": true,
          "name": "newOwner",
          "type": "address"
        }
      ],
      "name": "OwnershipTransferred",
      "type": "event"
    },
    {
      "constant": false,
      "inputs": [
        {
          "name": "_influencerHandle",
          "type": "string"
        },
        {
          "name": "_hashtag",
          "type": "string"
        }
      ],
      "name": "helloInfluencer",
      "outputs": [],
      "payable": true,
      "stateMutability": "payable",
      "type": "function"
    },
    {
      "constant": false,
      "inputs": [],
      "name": "checkForAd",
      "outputs": [],
      "payable": true,
      "stateMutability": "payable",
      "type": "function"
    },
    {
      "constant": false,
      "inputs": [
        {
          "name": "myid",
          "type": "bytes32"
        },
        {
          "name": "result",
          "type": "string"
        }
      ],
      "name": "__callback",
      "outputs": [],
      "payable": false,
      "stateMutability": "nonpayable",
      "type": "function"
    },
    {
      "constant": false,
      "inputs": [
        {
          "name": "_myid",
          "type": "bytes32"
        },
        {
          "name": "_result",
          "type": "string"
        },
        {
          "name": "_proof",
          "type": "bytes"
        }
      ],
      "name": "__callback",
      "outputs": [],
      "payable": false,
      "stateMutability": "nonpayable",
      "type": "function"
    }
  ],
  "bytecode": "0x6080604052604051606080620027dd833981018060405260608110156200002557600080fd5b810190808051906020019092919080519060200190929190805190602001909291905050506200006362000276640100000000026401000000009004565b600560006101000a81548173ffffffffffffffffffffffffffffffffffffffff021916908373ffffffffffffffffffffffffffffffffffffffff160217905550600560009054906101000a900473ffffffffffffffffffffffffffffffffffffffff1673ffffffffffffffffffffffffffffffffffffffff16600073ffffffffffffffffffffffffffffffffffffffff167f8be0079c531659141344cd1fd0a4f28419497f9722a3daafe3b4186f6b6457e060405160405180910390a33373ffffffffffffffffffffffffffffffffffffffff168173ffffffffffffffffffffffffffffffffffffffff16141515620001715762000170816200027e640100000000026401000000009004565b5b8260068190555081600760006101000a81548173ffffffffffffffffffffffffffffffffffffffff021916908373ffffffffffffffffffffffffffffffffffffffff1602179055507f11a3fca63f87bd67d7f9f72b744acc8be2193705e7a734ac3a773d35d259e87b60405180806020018281038252604a8152602001807f436f6e7374727563746f722077617320696e69746961746564212043616c6c2081526020017f27636865636b466f72416428292720746f2073656e64207468652050726f766181526020017f626c652051756572792e0000000000000000000000000000000000000000000081525060600191505060405180910390a150505062000525565b600033905090565b6200029762000329640100000000026401000000009004565b15156200030c576040517f08c379a00000000000000000000000000000000000000000000000000000000081526004018080602001828103825260208152602001807f4f776e61626c653a2063616c6c6572206973206e6f7420746865206f776e657281525060200191505060405180910390fd5b620003268162000399640100000000026401000000009004565b50565b6000600560009054906101000a900473ffffffffffffffffffffffffffffffffffffffff1673ffffffffffffffffffffffffffffffffffffffff166200037d62000276640100000000026401000000009004565b73ffffffffffffffffffffffffffffffffffffffff1614905090565b600073ffffffffffffffffffffffffffffffffffffffff168173ffffffffffffffffffffffffffffffffffffffff161415151562000465576040517f08c379a00000000000000000000000000000000000000000000000000000000081526004018080602001828103825260268152602001807f4f776e61626c653a206e6577206f776e657220697320746865207a65726f206181526020017f646472657373000000000000000000000000000000000000000000000000000081525060400191505060405180910390fd5b8073ffffffffffffffffffffffffffffffffffffffff16600560009054906101000a900473ffffffffffffffffffffffffffffffffffffffff1673ffffffffffffffffffffffffffffffffffffffff167f8be0079c531659141344cd1fd0a4f28419497f9722a3daafe3b4186f6b6457e060405160405180910390a380600560006101000a81548173ffffffffffffffffffffffffffffffffffffffff021916908373ffffffffffffffffffffffffffffffffffffffff16021790555050565b6122a880620005356000396000f3fe608060405260043610610093576000357c01000000000000000000000000000000000000000000000000000000009004806327dc297e1461009857806338bbfa501461016a578063715018a6146102d35780638da5cb5b146102ea5780638f32d59b14610341578063d9524ee414610370578063dca3ff141461039b578063f2fde38b146103a5578063fb3ffc96146103f6575b600080fd5b3480156100a457600080fd5b50610168600480360360408110156100bb57600080fd5b8101908080359060200190929190803590602001906401000000008111156100e257600080fd5b8201836020820111156100f457600080fd5b8035906020019184600183028401116401000000008311171561011657600080fd5b91908080601f016020809104026020016040519081016040528093929190818152602001838380828437600081840152601f19601f820116905080830192505050505050509192919290505050610548565b005b34801561017657600080fd5b506102d16004803603606081101561018d57600080fd5b8101908080359060200190929190803590602001906401000000008111156101b457600080fd5b8201836020820111156101c657600080fd5b803590602001918460018302840111640100000000831117156101e857600080fd5b91908080601f016020809104026020016040519081016040528093929190818152602001838380828437600081840152601f19601f8201169050808301925050505050505091929192908035906020019064010000000081111561024b57600080fd5b82018360208201111561025d57600080fd5b8035906020019184600183028401116401000000008311171561027f57600080fd5b91908080601f016020809104026020016040519081016040528093929190818152602001838380828437600081840152601f19601f8201169050808301925050505050505091929192905050506105aa565b005b3480156102df57600080fd5b506102e86105ce565b005b3480156102f657600080fd5b506102ff61070b565b604051808273ffffffffffffffffffffffffffffffffffffffff1673ffffffffffffffffffffffffffffffffffffffff16815260200191505060405180910390f35b34801561034d57600080fd5b50610356610735565b604051808215151515815260200191505060405180910390f35b34801561037c57600080fd5b50610385610794565b6040518082815260200191505060405180910390f35b6103a361079a565b005b3480156103b157600080fd5b506103f4600480360360208110156103c857600080fd5b81019080803573ffffffffffffffffffffffffffffffffffffffff169060200190929190505050610bde565b005b6105466004803603604081101561040c57600080fd5b810190808035906020019064010000000081111561042957600080fd5b82018360208201111561043b57600080fd5b8035906020019184600183028401116401000000008311171561045d57600080fd5b91908080601f016020809104026020016040519081016040528093929190818152602001838380828437600081840152601f19601f820116905080830192505050505050509192919290803590602001906401000000008111156104c057600080fd5b8201836020820111156104d257600080fd5b803590602001918460018302840111640100000000831117156104f457600080fd5b91908080601f016020809104026020016040519081016040528093929190818152602001838380828437600081840152601f19601f820116905080830192505050505050509192919290505050610c66565b005b61055181610d61565b600a81905550600654600a5410151561056d5761056c610d75565b5b7fea396cd16e551f96c954860dd4a18fbf056d07a49814f2c78b38c60a97b1fb78600a546040518082815260200191505060405180910390a15050565b60006001026003600080600102815260200190815260200160002081905550505050565b6105d6610735565b151561064a576040517f08c379a00000000000000000000000000000000000000000000000000000000081526004018080602001828103825260208152602001807f4f776e61626c653a2063616c6c6572206973206e6f7420746865206f776e657281525060200191505060405180910390fd5b600073ffffffffffffffffffffffffffffffffffffffff16600560009054906101000a900473ffffffffffffffffffffffffffffffffffffffff1673ffffffffffffffffffffffffffffffffffffffff167f8be0079c531659141344cd1fd0a4f28419497f9722a3daafe3b4186f6b6457e060405160405180910390a36000600560006101000a81548173ffffffffffffffffffffffffffffffffffffffff021916908373ffffffffffffffffffffffffffffffffffffffff160217905550565b6000600560009054906101000a900473ffffffffffffffffffffffffffffffffffffffff16905090565b6000600560009054906101000a900473ffffffffffffffffffffffffffffffffffffffff1673ffffffffffffffffffffffffffffffffffffffff16610778610e7c565b73ffffffffffffffffffffffffffffffffffffffff1614905090565b600a5481565b660e35fa931a0000341015151561083f576040517f08c379a00000000000000000000000000000000000000000000000000000000081526004018080602001828103825260288152602001807f506c656173652073656e64206d6f72652045544820746f20636f76657220717581526020017f657279206665652e00000000000000000000000000000000000000000000000081525060400191505060405180910390fd5b3073ffffffffffffffffffffffffffffffffffffffff16316108956040805190810160405280600381526020017f55524c0000000000000000000000000000000000000000000000000000000000815250610e84565b1115610954577fc4dc360d0a9c0677a3379ae0a3d81e887f761e65fdf3d7e00859d1bcd3c4738960405180806020018281038252604b8152602001807f50726f7661626c6520717565727920776173204e4f542073656e742c20706c6581526020017f6173652061646420736f6d652045544820746f20636f76657220666f7220746881526020017f652071756572792066656500000000000000000000000000000000000000000081525060600191505060405180910390a1610bdc565b7fc4dc360d0a9c0677a3379ae0a3d81e887f761e65fdf3d7e00859d1bcd3c473896040518080602001828103825260368152602001807f50726f7661626c65207175657279207761732073656e742c207374616e64696e81526020017f6720627920666f722074686520616e737765722e2e2e0000000000000000000081525060400191505060405180910390a1610bda6040805190810160405280600381526020017f55524c00000000000000000000000000000000000000000000000000000000008152506008600960405160200180807f6a736f6e2868747470733a2f2f6170692e74756d626c722e636f6d2f76322f6281526020017f6c6f672f0000000000000000000000000000000000000000000000000000000081525060240183805460018160011615610100020316600290048015610acb5780601f10610aa9576101008083540402835291820191610acb565b820191906000526020600020905b815481529060010190602001808311610ab7575b5050807f2e74756d626c722e636f6d2f706f7374732f746578743f6170695f6b65793d4c81526020017f754b6b68447263347450726f6a4a31724e5457436e68767675636d563763484b81526020017f78594d317a56725458305138416377664a267461673d0000000000000000000081525060560182805460018160011615610100020316600290048015610b985780601f10610b76576101008083540402835291820191610b98565b820191906000526020600020905b815481529060010190602001808311610b84575b5050807f292e726573706f6e73652e746f74616c5f706f737473000000000000000000008152506016019250505060405160208183030381529060405261126b565b505b565b610be6610735565b1515610c5a576040517f08c379a00000000000000000000000000000000000000000000000000000000081526004018080602001828103825260208152602001807f4f776e61626c653a2063616c6c6572206973206e6f7420746865206f776e657281525060200191505060405180910390fd5b610c6381611824565b50565b600760009054906101000a900473ffffffffffffffffffffffffffffffffffffffff1673ffffffffffffffffffffffffffffffffffffffff163373ffffffffffffffffffffffffffffffffffffffff161415610cef578160089080519060200190610cd29291906121d7565b508060099080519060200190610ce99291906121d7565b50610d5d565b6040517f08c379a00000000000000000000000000000000000000000000000000000000081526004018080602001828103825260198152602001807f536f6d657468696e672077726f6e672068617070656e65642e0000000000000081525060200191505060405180910390fd5b5050565b6000610d6e8260006119af565b9050919050565b600760009054906101000a900473ffffffffffffffffffffffffffffffffffffffff1673ffffffffffffffffffffffffffffffffffffffff166108fc3073ffffffffffffffffffffffffffffffffffffffff16319081150290604051600060405180830381858888f19350505050158015610df4573d6000803e3d6000fd5b507f2d339b1e3334d3f43e7aa6d5b1fa3ca5e4228b2dd547d1710c726019d98e53fa600760009054906101000a900473ffffffffffffffffffffffffffffffffffffffff16604051808273ffffffffffffffffffffffffffffffffffffffff1673ffffffffffffffffffffffffffffffffffffffff16815260200191505060405180910390a1565b600033905090565b60008073ffffffffffffffffffffffffffffffffffffffff16600160009054906101000a900473ffffffffffffffffffffffffffffffffffffffff1673ffffffffffffffffffffffffffffffffffffffff161480610f0c57506000610f0a600160009054906101000a900473ffffffffffffffffffffffffffffffffffffffff16611c4a565b145b15610f1d57610f1b6000611c55565b505b600160009054906101000a900473ffffffffffffffffffffffffffffffffffffffff1673ffffffffffffffffffffffffffffffffffffffff166338cc48316040518163ffffffff167c0100000000000000000000000000000000000000000000000000000000028152600401602060405180830381600087803b158015610fa357600080fd5b505af1158015610fb7573d6000803e3d6000fd5b505050506040513d6020811015610fcd57600080fd5b810190808051906020019092919050505073ffffffffffffffffffffffffffffffffffffffff166000809054906101000a900473ffffffffffffffffffffffffffffffffffffffff1673ffffffffffffffffffffffffffffffffffffffff1614151561113457600160009054906101000a900473ffffffffffffffffffffffffffffffffffffffff1673ffffffffffffffffffffffffffffffffffffffff166338cc48316040518163ffffffff167c0100000000000000000000000000000000000000000000000000000000028152600401602060405180830381600087803b1580156110b957600080fd5b505af11580156110cd573d6000803e3d6000fd5b505050506040513d60208110156110e357600080fd5b81019080805190602001909291905050506000806101000a81548173ffffffffffffffffffffffffffffffffffffffff021916908373ffffffffffffffffffffffffffffffffffffffff1602179055505b6000809054906101000a900473ffffffffffffffffffffffffffffffffffffffff1673ffffffffffffffffffffffffffffffffffffffff1663524f3889836040518263ffffffff167c01000000000000000000000000000000000000000000000000000000000281526004018080602001828103825283818151815260200191508051906020019080838360005b838110156111dd5780820151818401526020810190506111c2565b50505050905090810190601f16801561120a5780820380516001836020036101000a031916815260200191505b5092505050602060405180830381600087803b15801561122957600080fd5b505af115801561123d573d6000803e3d6000fd5b505050506040513d602081101561125357600080fd5b81019080805190602001909291905050509050919050565b60008073ffffffffffffffffffffffffffffffffffffffff16600160009054906101000a900473ffffffffffffffffffffffffffffffffffffffff1673ffffffffffffffffffffffffffffffffffffffff1614806112f3575060006112f1600160009054906101000a900473ffffffffffffffffffffffffffffffffffffffff16611c4a565b145b15611304576113026000611c55565b505b600160009054906101000a900473ffffffffffffffffffffffffffffffffffffffff1673ffffffffffffffffffffffffffffffffffffffff166338cc48316040518163ffffffff167c0100000000000000000000000000000000000000000000000000000000028152600401602060405180830381600087803b15801561138a57600080fd5b505af115801561139e573d6000803e3d6000fd5b505050506040513d60208110156113b457600080fd5b810190808051906020019092919050505073ffffffffffffffffffffffffffffffffffffffff166000809054906101000a900473ffffffffffffffffffffffffffffffffffffffff1673ffffffffffffffffffffffffffffffffffffffff1614151561151b57600160009054906101000a900473ffffffffffffffffffffffffffffffffffffffff1673ffffffffffffffffffffffffffffffffffffffff166338cc48316040518163ffffffff167c0100000000000000000000000000000000000000000000000000000000028152600401602060405180830381600087803b1580156114a057600080fd5b505af11580156114b4573d6000803e3d6000fd5b505050506040513d60208110156114ca57600080fd5b81019080805190602001909291905050506000806101000a81548173ffffffffffffffffffffffffffffffffffffffff021916908373ffffffffffffffffffffffffffffffffffffffff1602179055505b60008060009054906101000a900473ffffffffffffffffffffffffffffffffffffffff1673ffffffffffffffffffffffffffffffffffffffff1663524f3889856040518263ffffffff167c01000000000000000000000000000000000000000000000000000000000281526004018080602001828103825283818151815260200191508051906020019080838360005b838110156115c65780820151818401526020810190506115ab565b50505050905090810190601f1680156115f35780820380516001836020036101000a031916815260200191505b5092505050602060405180830381600087803b15801561161257600080fd5b505af1158015611626573d6000803e3d6000fd5b505050506040513d602081101561163c57600080fd5b8101908080519060200190929190505050905062030d403a02670de0b6b3a76400000181111561167357600060010291505061181e565b6000809054906101000a900473ffffffffffffffffffffffffffffffffffffffff1673ffffffffffffffffffffffffffffffffffffffff1663adf59f9982600087876040518563ffffffff167c0100000000000000000000000000000000000000000000000000000000028152600401808481526020018060200180602001838103835285818151815260200191508051906020019080838360005b8381101561172a57808201518184015260208101905061170f565b50505050905090810190601f1680156117575780820380516001836020036101000a031916815260200191505b50838103825284818151815260200191508051906020019080838360005b83811015611790578082015181840152602081019050611775565b50505050905090810190601f1680156117bd5780820380516001836020036101000a031916815260200191505b50955050505050506020604051808303818588803b1580156117de57600080fd5b505af11580156117f2573d6000803e3d6000fd5b50505050506040513d602081101561180957600080fd5b81019080805190602001909291905050509150505b92915050565b600073ffffffffffffffffffffffffffffffffffffffff168173ffffffffffffffffffffffffffffffffffffffff16141515156118ef576040517f08c379a00000000000000000000000000000000000000000000000000000000081526004018080602001828103825260268152602001807f4f776e61626c653a206e6577206f776e657220697320746865207a65726f206181526020017f646472657373000000000000000000000000000000000000000000000000000081525060400191505060405180910390fd5b8073ffffffffffffffffffffffffffffffffffffffff16600560009054906101000a900473ffffffffffffffffffffffffffffffffffffffff1673ffffffffffffffffffffffffffffffffffffffff167f8be0079c531659141344cd1fd0a4f28419497f9722a3daafe3b4186f6b6457e060405160405180910390a380600560006101000a81548173ffffffffffffffffffffffffffffffffffffffff021916908373ffffffffffffffffffffffffffffffffffffffff16021790555050565b600060608390506000809050600080905060008090505b8351811015611c2b57603084828151811015156119df57fe5b9060200101517f010000000000000000000000000000000000000000000000000000000000000090047f0100000000000000000000000000000000000000000000000000000000000000027f0100000000000000000000000000000000000000000000000000000000000000900460ff1610158015611add575060398482815181101515611a6957fe5b9060200101517f010000000000000000000000000000000000000000000000000000000000000090047f0100000000000000000000000000000000000000000000000000000000000000027f0100000000000000000000000000000000000000000000000000000000000000900460ff1611155b15611b91578115611b00576000861415611af657611c2b565b8580600190039650505b600a8302925060308482815181101515611b1657fe5b9060200101517f010000000000000000000000000000000000000000000000000000000000000090047f0100000000000000000000000000000000000000000000000000000000000000027f0100000000000000000000000000000000000000000000000000000000000000900460ff160383019250611c1e565b602e8482815181101515611ba157fe5b9060200101517f010000000000000000000000000000000000000000000000000000000000000090047f0100000000000000000000000000000000000000000000000000000000000000027f0100000000000000000000000000000000000000000000000000000000000000900460ff161415611c1d57600191505b5b80806001019150506119c6565b506000851115611c3e5784600a0a820291505b81935050505092915050565b6000813b9050919050565b6000611c5f611c66565b9050919050565b600080611c86731d3b2638a7cc9f2cb3d298a3da7a90b67e5506ed611c4a565b1115611d2857731d3b2638a7cc9f2cb3d298a3da7a90b67e5506ed600160006101000a81548173ffffffffffffffffffffffffffffffffffffffff021916908373ffffffffffffffffffffffffffffffffffffffff160217905550611d1f6040805190810160405280600b81526020017f6574685f6d61696e6e65740000000000000000000000000000000000000000008152506121bd565b600190506121ba565b6000611d4773c03a2615d5efaf5f49f60b7bb6583eaec212fdf1611c4a565b1115611de95773c03a2615d5efaf5f49f60b7bb6583eaec212fdf1600160006101000a81548173ffffffffffffffffffffffffffffffffffffffff021916908373ffffffffffffffffffffffffffffffffffffffff160217905550611de06040805190810160405280600c81526020017f6574685f726f707374656e3300000000000000000000000000000000000000008152506121bd565b600190506121ba565b6000611e0873b7a07bcf2ba2f2703b24c0691b5278999c59ac7e611c4a565b1115611eaa5773b7a07bcf2ba2f2703b24c0691b5278999c59ac7e600160006101000a81548173ffffffffffffffffffffffffffffffffffffffff021916908373ffffffffffffffffffffffffffffffffffffffff160217905550611ea16040805190810160405280600981526020017f6574685f6b6f76616e00000000000000000000000000000000000000000000008152506121bd565b600190506121ba565b6000611ec973146500cfd35b22e4a392fe0adc06de1a1368ed48611c4a565b1115611f6b5773146500cfd35b22e4a392fe0adc06de1a1368ed48600160006101000a81548173ffffffffffffffffffffffffffffffffffffffff021916908373ffffffffffffffffffffffffffffffffffffffff160217905550611f626040805190810160405280600b81526020017f6574685f72696e6b6562790000000000000000000000000000000000000000008152506121bd565b600190506121ba565b6000611f8a73a2998efd205fb9d4b4963afb70778d6354ad3a41611c4a565b111561202c5773a2998efd205fb9d4b4963afb70778d6354ad3a41600160006101000a81548173ffffffffffffffffffffffffffffffffffffffff021916908373ffffffffffffffffffffffffffffffffffffffff1602179055506120236040805190810160405280600a81526020017f6574685f676f65726c69000000000000000000000000000000000000000000008152506121bd565b600190506121ba565b600061204b736f485c8bf6fc43ea212e93bbf8ce046c7f1cb475611c4a565b11156120af57736f485c8bf6fc43ea212e93bbf8ce046c7f1cb475600160006101000a81548173ffffffffffffffffffffffffffffffffffffffff021916908373ffffffffffffffffffffffffffffffffffffffff160217905550600190506121ba565b60006120ce7320e12a1f859b3feae5fb2a0a32c18f5a65555bbf611c4a565b1115612132577320e12a1f859b3feae5fb2a0a32c18f5a65555bbf600160006101000a81548173ffffffffffffffffffffffffffffffffffffffff021916908373ffffffffffffffffffffffffffffffffffffffff160217905550600190506121ba565b60006121517351efaf4c8b3c9afbd5ab9f4bbc82784ab6ef8faa611c4a565b11156121b5577351efaf4c8b3c9afbd5ab9f4bbc82784ab6ef8faa600160006101000a81548173ffffffffffffffffffffffffffffffffffffffff021916908373ffffffffffffffffffffffffffffffffffffffff160217905550600190506121ba565b600090505b90565b80600290805190602001906121d39291906121d7565b5050565b828054600181600116156101000203166002900490600052602060002090601f016020900481019282601f1061221857805160ff1916838001178555612246565b82800160010185558215612246579182015b8281111561224557825182559160200191906001019061222a565b5b5090506122539190612257565b5090565b61227991905b8082111561227557600081600090555060010161225d565b5090565b9056fea165627a7a72305820c083138fc25679c7893968240ab61d01b314ed2a9417c0434a1e91365ad512c10029",
  "source": "pragma solidity ^0.5.0;\n\nimport \"./provableAPI.sol\";\n// import \"github.com/provable-things/ethereum-api/provableAPI.sol\";\nimport \"@openzeppelin/contracts/ownership/Ownable.sol\";\n// import \"./Ownable.sol\";\n\ncontract Bark is usingProvable, Ownable {\n\n    // event listeners for Provable query and final funds transfer\n    event Transfer(address influencerAddress);\n    event LogConstructorInitiated(string nextStep);\n    event LogNewProvableQuery(string description);\n    event LogAdConfirmations(uint256 numberOfPosts);\n\n    // basic variables to store general information\n    uint256 adQuota;\n    address payable influencerAddress;\n    string influencerHandle;\n    string hashtag;\n    uint256 public numberOfPosts;\n\n    // initializing constructor: owner of the contract is the business\n    constructor(uint256 _adQuota, address payable _influencerAddress, address _owner) payable public {\n        if (_owner != msg.sender) {\n          transferOwnership(_owner);\n        }\n        adQuota = _adQuota;\n        influencerAddress = _influencerAddress;\n        emit LogConstructorInitiated(\"Constructor was initiated! Call 'checkForAd()' to send the Provable Query.\");\n        // OAR = OraclizeAddrResolverI(0x6f485C8BF6fc43eA212E93BBF8ce046C7f1cb475);\n    }\n\n    // influencer calls this function to input their own information\n    function helloInfluencer(string memory _influencerHandle, string memory _hashtag) payable public {\n        if (msg.sender == influencerAddress) {\n            influencerHandle = _influencerHandle;\n            hashtag = _hashtag;\n        } else {\n            revert(\"Something wrong happened.\");\n        }\n    }\n\n    // Provable query to check for the number of ads posted\n  \tfunction checkForAd() payable public {\n  \t\trequire(msg.value >= 0.004 ether, \"Please send more ETH to cover query fee.\");\n  \t\tif (provable_getPrice(\"URL\") > address(this).balance) {\n  \t\t\temit LogNewProvableQuery(\"Provable query was NOT sent, please add some ETH to cover for the query fee\");\n  \t\t} else {\n  \t\t    emit LogNewProvableQuery(\"Provable query was sent, standing by for the answer...\");\n              provable_query(\"URL\", string(abi.encodePacked('json(https://api.tumblr.com/v2/blog/', influencerHandle, '.tumblr.com/posts/text?api_key=LuKkhDrc4tProjJ1rNTWCnhvvucmV7cHKxYM1zVrTX0Q8AcwfJ&tag=', hashtag, ').response.total_posts')));\n              // provable_query(\"URL\", 'json(https://api.tumblr.com/v2/blog/genericinfluencer.tumblr.com/posts/text?api_key=LuKkhDrc4tProjJ1rNTWCnhvvucmV7cHKxYM1zVrTX0Q8AcwfJ&tag=ad).response.total_posts');\n          }\n  \t}\n\n    // Provable callback function\n  \tfunction __callback(bytes32 myid, string memory result) public {\n  \t\t// require(msg.sender != provable_cbAddress());\n  \t\tnumberOfPosts = parseInt(result);\n  \t\tif (numberOfPosts >= adQuota) {\n  \t\t\tinfluencerPayout();\n  \t\t}\n  \t\temit LogAdConfirmations(numberOfPosts);\n  \t}\n\n    // final transfer function\n    function influencerPayout() private {\n        influencerAddress.transfer(address(this).balance);\n        emit Transfer(influencerAddress);\n    }\n}\n",
  "sourcePath": "/Users/ramyzhang/Desktop/bark/contracts/Bark.sol",
  "compiler": {
    "name": "solc",
    "version": "0.5.1+commit.c8a2cb62.Emscripten.clang"
  },
  "schemaVersion": "3.0.1",
  "updatedAt": "2019-11-10T08:11:36.338Z",
  "devdoc": {
    "methods": {
      "isOwner()": {
        "details": "Returns true if the caller is the current owner."
      },
      "owner()": {
        "details": "Returns the address of the current owner."
      },
      "renounceOwnership()": {
        "details": "Leaves the contract without owner. It will not be possible to call `onlyOwner` functions anymore. Can only be called by the current owner.     * NOTE: Renouncing ownership will leave the contract without an owner, thereby removing any functionality that is only available to the owner."
      },
      "transferOwnership(address)": {
        "details": "Transfers ownership of the contract to a new account (`newOwner`). Can only be called by the current owner."
      }
    }
  },
  "userdoc": {
    "methods": {}
  }
}